:1000000012C02CC02BC02AC029C028C027C026C0BF
:1000100025C024C023C022C021C020C01FC01EC0D4
:100020001DC01CC01BC011241FBECFE5D4E0DEBF25
:10003000CDBF10E0A0E6B0E0E2EEF2E002C0059035
:100040000D92AA36B107D9F710E0AAE6B0E001C0D8
:100050001D92AE36B107E1F7C6D041C1D1CF92B300
:10006000282F207F9F70292B22BB9298939A25E0FE
:10007000922F9A95F1F79398E0E2F3E03197F1F738
:1000800092B38295807F9F70982B92BB939A2A950A
:10009000F1F7939880E49FE10197F1F7089592B307
:1000A000282F207F9F70292B22BB929A939A25E0BC
:1000B000922F9A95F1F79398E0E2F3E03197F1F7F8
:1000C00092B38295807F9F70982B92BB939A2A95CA
:1000D000F1F7939880E49FE10197F1F708958FEF8E
:1000E00081BB88EC90E020E931E0F9013197F1F72C
:1000F0000197D9F782E0B3DF88E2B1DF8CE0AFDFB0
:1001000086E0ADDF81E0ABDF80E49FE10197F1F7AE
:100110000895CF93DF93EC0101C0C1DF899188235B
:10012000E1F7DF91CF910895CF93DF93EA01882320
:1001300031F4603160F46F70862F806807C08130C1
:1001400031F4603120F46F70862F806C88DFCE012F
:10015000E0DFDF91CF91089581E081DF80E49FE1CE
:100160000197F1F780E87BDF0895EF92FF920F93FC
:100170001F93182F64E680D0482F282F30E08CE999
:100180009FEF289F7001299FF00C389FF00C1124DD
:10019000C701810F911D6AE070E07AD0062F842F8D
:1001A000805D7DDF802F805D7ADF105D1E0D86EF24
:1001B0009FEF089F002D1124802F810F70DF1F916A
:1001C0000F91FF90EF90089586E886B9089590E624
:1001D00097B997B1982B97B9369A80EA9FE0019723
:1001E000F1F785B10895CF92DF92EF92FF920F93CE
:1001F0001F93CF93DF938FEF87BB71DFADDF86E86F
:1002000086B990E6E92EC0EADFE080E9C82E81E0F9
:10021000D82EE7B887B187B9369ACE010197F1F7A2
:1002200015B1E7B8389A369ACE010197F1F705B1C2
:10023000E7B8399A369ACE010197F1F7F5B080E820
:100240000EDF80E690E065DF812F8FDF87E807DF34
:1002500083E690E05EDF802F88DF80EC00DF86E6BB
:1002600090E057DF8F2D81DF84EF91E0F601319729
:10027000F1F70197D9F7CDCF991B79E004C0991F09
:10028000961708F0961B881F7A95C9F780950895F0
:1002900097FB092E07260AD077FD04D00CD006D094
:1002A00000201AF4709561957F4F0895F6F79095A8
:1002B00081959F4F0895AA1BBB1B51E107C0AA1F40
:1002C000BB1FA617B70710F0A61BB70B881F991FF7
:1002D0005A95A9F780959095BC01CD010895F894A1
:0202E000FFCF4E
:0A02E200583D00593D005A3D000050
:00000001FF
