:1000000012C021C020C01FC01EC01DC01CC01BC00C
:100010001AC019C018C017C016C015C014C013C02C
:1000200012C011C010C011241FBECFE5D4E0DEBF46
:10003000CDBF10E0A0E6B0E001C01D92A436B1072C
:10004000E1F767D0F0C0DCCF1BB810BC88E089B9FD
:1000500088E18AB986E880BD08955D9BFECF8CB9A2
:100060000895CF93DF93482F64E6AAD0E82F282F76
:1000700030E08CE99FEF289FE001299FD00D389F49
:10008000D00D1124CE01840F911D6AE070E0A4D040
:100090005D9BFECFE05DECB95D9BFECF605D6CB912
:1000A00060535D9BFECF405D4C0F86EF9FEF689FD6
:1000B000802D1124840F8CB9DF91CF9108955F9B1F
:1000C000FECF8CB1089588EE93E020E931E0F9018C
:1000D0003197F1F70197D9F70895FC0104C05D9BB2
:1000E000FECF8CB9319680818823C9F784E690E0F1
:1000F000EADF089586E886B9089590E697B997B142
:10010000982B97B9369A80EA9FE00197F1F785B16D
:100110000895BF92CF92DF92EF92FF920F931F93B9
:10012000CF93DF938FE087BB1BB810BC88E089B901
:1001300088E18AB986E880BD86B988EE93E020E937
:1001400031E0F9013197F1F70197D9F781E088BBE8
:1001500030E6F32EC0EADFE029E0E22E9AE0B92E85
:1001600080E9C82E81E0D82EF7B887B187B9369AD2
:10017000CE010197F1F785B1F7B8389A369AFE01AA
:100180003197F1F705B1F7B8399A369AFE013197F0
:10019000F1F715B166DF5D9BFECFECB8802F61DF14
:1001A0005D9BFECFECB8812F5CDF5D9BFECFBCB8C2
:1001B00088EE93E0F6013197F1F70197D9F7D4CFA4
:1001C000991B79E004C0991F961708F0961B881FA9
:1001D0007A95C9F78095089597FB092E07260AD0CE
:1001E00077FD04D00CD006D000201AF470956195EC
:1001F0007F4F0895F6F7909581959F4F0895AA1B1C
:10020000BB1B51E107C0AA1FBB1FA617B70710F001
:10021000A61BB70B881F991F5A95A9F78095909533
:0A022000BC01CD010895F894FFCF52
:00000001FF
