:100000000C942A000C9447000C9447000C94470071
:100010000C9447000C9447000C9447000C94470044
:100020000C9447000C9447000C9447000C94470034
:100030000C9447000C9447000C9447000C94470024
:100040000C9447000C9447000C9447000C94470014
:100050000C94470011241FBECFE5D4E0DEBFCDBF16
:1000600010E0A0E6B0E0E4E7F2E002C005900D92F7
:10007000AC36B107D9F710E0ACE6B0E001C01D9294
:10008000A037B107E1F70E94B1000C9438010C943D
:10009000000086E886B9089590E697B997B1982B45
:1000A00097B9369A80EA9FE00197F1F785B10895F4
:1000B0001BB810BC88E089B988E18AB986E880BDA0
:1000C00008955D9BFECF8CB90895CF93DF93482FA1
:1000D00064E60E940501E82F282F30E08CE99FEFAD
:1000E000289FE001299FD00D389FD00D1124CE010B
:1000F000840F911D6AE070E00E9411015D9BFECFAC
:10010000E05DECB95D9BFECF605D6CB960535D9BBB
:10011000FECF405D4C0F86EF9FEF689F802D11242E
:10012000840F8CB9DF91CF9108955F9BFECF8CB186
:10013000089588EE93E020E931E0F9013197F1F775
:100140000197D9F70895FC0104C05D9BFECF8CB9DF
:10015000319680818823C9F784E690E00E94990057
:100160000895BF92CF92DF92EF92FF920F931F9369
:10017000CF93DF938FEF87BB1BB810BC88E089B9A2
:1001800088E18AB986E880BD86B920E6E22EC0EA19
:10019000DFE09AE0B92E80E9C82E81E0D82EE7B8DA
:1001A00087B187B9369ACE010197F1F7F5B0E7B874
:1001B000389A369ACE010197F1F705B1E7B8399A26
:1001C000369ACE010197F1F715B180E690E00E94D2
:1001D000A3008F2D0E94650083E690E00E94A3009B
:1001E000802F0E94650087E690E00E94A300812F87
:1001F0000E9465005D9BFECFBCB884EF91E0F601E4
:100200003197F1F70197D9F7CACF991B79E004C06C
:10021000991F961708F0961B881F7A95C9F7809545
:10022000089597FB092E07260AD077FD04D00CD03D
:1002300006D000201AF4709561957F4F0895F6F767
:10024000909581959F4F0895AA1BBB1B51E107C054
:10025000AA1FBB1FA617B70710F0A61BB70B881F56
:10026000991F5A95A9F780959095BC01CD010895E5
:04027000F894FFCF30
:0C027400583A0020593A00205A3A000085
:00000001FF
