:1000000012C024C023C022C021C020C01FC01EC0F7
:100010001DC01CC01BC01AC019C018C017C016C014
:1000200015C014C013C011241FBECFE5D4E0DEBF3D
:10003000CDBF10E0A0E6B0E0ECE4F2E002C0059035
:100040000D92AE36B107D9F7BBD0FEC0D9CF92B36F
:10005000282F207F9F70292B22BB9298939A20EA09
:100060003FE0F9013197F1F79398E0E2F3E031973F
:10007000F1F792B38295807F9F70982B92BB939AF1
:10008000C9010197F1F7939880E49FE10197F1F797
:10009000089592B3282F207F9F70292B22BB929A1C
:1000A000939A20EA3FE0F9013197F1F79398E0E263
:1000B000F3E03197F1F792B38295807F9F70982B90
:1000C00092BB939AC9010197F1F7939880E49FE15D
:1000D0000197F1F708958FEF81BB88EC90E020E95C
:1000E00031E0F9013197F1F70197D9F782E0AFDFFD
:1000F00088E2ADDF8CE0ABDF86E0A9DF81E0A7DF3F
:1001000080E49FE10197F1F70895CF93DF93EC012D
:1001100001C0BFDF89918823E1F7DF91CF91089576
:10012000CF93DF93EA01882331F4603160F46F707C
:10013000862F806807C0813031F4603120F46F7001
:10014000862F806C84DFCE01E0DFDF91CF910895B0
:1001500081E07DDF80E49FE10197F1F780E877DFC0
:100160000895EF92FF920F931F93182F64E639D0F2
:10017000482F282F30E08CE99FEF289F7001299F9E
:10018000F00C389FF00C1124C701810F911D6AE01B
:1001900070E033D0062F842F805D7BDF802F805D61
:1001A00078DF105D1E0D86EF9FEF089F002D112454
:1001B000802F810F6EDF1F910F91FF90EF900895B8
:1001C0008ADFC6DF80E843DF80E690E09EDF80ECD8
:1001D0003EDF87E3C6DF86EC3ADF88E690E095DF16
:1001E0000895991B79E004C0991F961708F0961B93
:1001F000881F7A95C9F78095089597FB092E0726E1
:100200000AD077FD04D00CD006D000201AF47095E7
:1002100061957F4F0895F6F7909581959F4F0895CA
:10022000AA1BBB1B51E107C0AA1FBB1FA617B7071C
:1002300010F0A61BB70B881F991F5A95A9F7809538
:0C0240009095BC01CD010895F894FFCF0B
:0E024C006933696E647961007465636800004F
:00000001FF
