:1000000012C02CC02BC02AC029C028C027C026C0BF
:1000100025C024C023C022C021C020C01FC01EC0D4
:100020001DC01CC01BC011241FBECFE5D4E0DEBF25
:10003000CDBF10E0A0E6B0E0EEE7F2E002C0059030
:100040000D92A236B107D9F710E0A2E6B0E001C0E8
:100050001D92A636B107E1F767D00FC1D1CF86E870
:1000600086B9089590E697B997B1982B97B9369AC3
:1000700080EA9FE00197F1F785B108951BB810BCA5
:1000800088E089B988E18AB986E880BD08955D9BDA
:10009000FECF8CB90895CF93DF93482F64E6BAD092
:1000A000E82F282F30E08CE99FEF289FE001299F5F
:1000B000D00D389FD00D1124CE01840F911D6AE020
:1000C00070E0B4D05D9BFECFE05DECB95D9BFECFF0
:1000D000605D6CB960535D9BFECF405D4C0F86EF59
:1000E0009FEF689F802D1124840F8CB9DF91CF91F1
:1000F00008955F9BFECF8CB1089588EE93E020E9D0
:1001000031E0F9013197F1F70197D9F70895FC0132
:1001100004C05D9BFECF8CB9319680818823C9F7DE
:1001200084E690E0EADF08958F929F92AF92BF92AB
:10013000CF92DF92EF92FF920F931F93CF93DF93B3
:100140008FEF87BB1BB810BC88E089B988E18AB9FA
:1001500086E880BD86B950E6E52EC0EADFE04AE0D9
:10016000B42E32E0832E28E0922E95E0A92E80E96D
:10017000C82E81E0D82EE7B887B187B9369ACE016C
:100180000197F1F7F5B0E7B8389A369ACE010197A2
:10019000F1F705B1E7B8399A369ACE010197F1F730
:1001A00015B18F2D78DF80E690E0B1DF802F73DF0F
:1001B00080E690E0ACDF812F6EDF5D9BFECFBCB8A8
:1001C000202F30E0C901815590400E9710F4B8BA45
:1001D00018C02F5630402E30310510F4A8BA11C087
:1001E0002F2D30E0C9018F569040439710F498BAF4
:1001F00008C0215530402E30310510F488BA01C0B6
:1002000018BA84EF91E0F6013197F1F7019709F4FC
:10021000B2CFF9CF991B79E004C0991F961708F067
:10022000961B881F7A95C9F78095089597FB092E2C
:1002300007260AD077FD04D00CD006D000201AF48F
:10024000709561957F4F0895F6F7909581959F4F32
:100250000895AA1BBB1B51E107C0AA1FBB1FA6170D
:10026000B70710F0A61BB70B881F991F5A95A9F75F
:0E02700080959095BC01CD010895F894FFCFC4
:02027E0020005E
:00000001FF
